:100000000C942A000C9447000C9447000C94470071
:100010000C9447000C9447000C9447000C94470044
:100020000C9447000C9447000C9447000C94470034
:100030000C9447000C9447000C9447000C94470024
:100040000C9447000C9447000C9447000C94470014
:100050000C94470011241FBECFE5D8E0DEBFCDBF12
:1000600010E0A0E6B0E0E8E2FAE002C005900D92F0
:10007000AC3AB107D9F720E0ACEAB0E001C01D927C
:10008000A63BB207E1F70E9449000C9412050C94BC
:100090000000CF93DF931F92CDB7DEB70E94CC0351
:1000A0000E948D020E94B5010E94F9030E94B304D0
:1000B00060E080E00E94EB0181E690E00E94D801C0
:1000C00061E081E00E94EB0180E790E00E94D801AE
:1000D00068EE73E080E090E00E94DF030E94AB01D5
:1000E000198282E00E949D029C01A4EFB1E00E946F
:1000F00003056B017C010B2EBAE0F694E794D794CC
:10010000C794BA95D1F7B02D60E080E00E94EB0172
:1001100080E890E00E94D801C701B601882799279E
:100120000E94F30187E890E00E94D801809160006E
:1001300090E0C816D90688F00E9459028091AC0060
:1001400081111AC081E08093AC0065E00E94EB0150
:100150008EE890E00E94D8010FC00E947402809146
:10016000AC00813049F41092AC0065E00E94EB01D4
:100170008DE990E00E94D801CE0101960E9408040A
:100180008130E1F58981823711F08235B9F481E05F
:100190000E94040483E00E94040482E00E9404049C
:1001A00080E00E940404809160000E94040481E3C6
:1001B0000E9404048AEC0E94040420C0873711F0D6
:1001C0008735E1F48DE28093600081E00E940404B1
:1001D00086E00E94040480E00E94040480E00E9403
:1001E000040480E00E940404809160000E940404E2
:1001F00081E30E9404048AEC0E9404040E94B60475
:100200006FCF0F931F93CF93DF93CDB7DEB72897B0
:100210000FB6F894DEBF0FBECDBF082F84E08983F0
:1002200085E08A8386E08B8387E08C831D8210E0E3
:1002300017C0E1E0F0E0EC0FFD1FE10FF11D808140
:100240008E83802F90E0012E02C0959587950A94A9
:10025000E2F781708887CE0105960E9435031F5F03
:10026000143038F328960FB6F894DEBF0FBECDBF1A
:10027000DF91CF911F910F910895CF93DF9300D01D
:1002800000D0CDB7DEB781E089831A828C83CE019E
:1002900001960E94350362E070E080E090E00E94E9
:1002A000DF031C82CE0101960E94350362E070E0FC
:1002B00080E090E00E94DF030F900F900F900F906E
:1002C000DF91CF9108951F93CF93DF9300D000D09B
:1002D000CDB7DEB7182F81E089838A831C82CE01D7
:1002E00001960E943503812F82958F700E94010133
:1002F0000E943D01812F0E9401010E943D010F904B
:100300000F900F900F90DF91CF911F9108951F9341
:10031000CF93DF9300D000D0CDB7DEB7182F81E0A8
:1003200089838A838C83CE0101960E943503812FB5
:1003300082958F700E9401010E943D01812F0E94D1
:1003400001010E943D010F900F900F900F90DF91DF
:10035000CF911F91089581E00E94630162E070E0F7
:1003600080E090E00E94DF03089563E081E00E9456
:10037000BC0360EF80E00E94BC0368E270E080E0B4
:1003800090E00E94DF0382E00E9401010E943D0193
:1003900082E00E9401010E943D0188E00E9401016B
:1003A0000E943D018CE00E9463010E94AB01089510
:1003B0000F931F93CF938C01C0E003C00E9487016D
:1003C000CF5FF801EC0FF11D80818111F7CFCF9144
:1003D0001F910F91089590E4699F800D112480680A
:1003E0000E94630108951F93CF93DF93CDB7DEB7CB
:1003F0002A970FB6F894DEBF0FBECDBF6115710509
:1004000081059105D1F480E30E9487012CC02AE088
:1004100030E040E050E00E94E104E1E0F0E0EC0F69
:10042000FD1FE10FF11D17FDFA95605D6083622FDE
:10043000732F842F952F1F5F01C010E06115710588
:100440008105910521F711500CC0E1E0F0E0EC0FBF
:10045000FD1FE10FF11D17FDFA9580810E948701B4
:100460001150112394F72A960FB6F894DEBF0FBEF1
:10047000CDBFDF91CF911F910895CF93DF9300D02F
:1004800000D0CDB7DEB783E0898382E08A8381E044
:100490008B831C82CE0101960E94AE02CE01019692
:1004A0000E9435030F900F900F900F90DF91CF9126
:1004B0000895CF93DF9300D000D0CDB7DEB7198277
:1004C0001A821B821C8282E0898383E08A8381E016
:1004D0008C83CE0101960E9435030F900F900F90F0
:1004E0000F90DF91CF910895CF93DF9300D000D08C
:1004F000CDB7DEB719821A821B821C8282E0898303
:1005000083E08A83CE0101960E9435030F900F90FD
:100510000F900F90DF91CF91089587B1806487B9D4
:1005200087B18F7787B986B1887F86B986B18760B2
:1005300086B986B1806886B9089597B1907E97B9DB
:1005400097B1892B87B986B1806486B9349BFECF79
:1005500086B1806186B984B195B10895FC01892B7B
:1005600009F482C08081813031F138F0823009F4A1
:1005700040C0833009F45BC008958281813061F40A
:100580002AB381E090E0018002C0880F991F0A948D
:10059000E2F7822B8ABB0895811166C02AB381E0FD
:1005A00090E0018002C0880F991F0A94E2F78095BD
:1005B00082238ABB08958281813061F427B381E070
:1005C00090E0018002C0880F991F0A94E2F7822B05
:1005D00087BB0895811148C027B381E090E0018076
:1005E00002C0880F991F0A94E2F78095822387BB87
:1005F00008958281813061F424B381E090E001802C
:1006000002C0880F991F0A94E2F7822B84BB0895D9
:1006100081112AC024B381E090E0018002C0880FDC
:10062000991F0A94E2F78095822384BB0895828102
:10063000813061F421B381E090E0018002C0880F35
:10064000991F0A94E2F7822B81BB089581110CC097
:1006500021B381E090E0018002C0880F991F0A94C5
:10066000E2F78095822381BB0895FC01892B09F470
:1006700082C08081813031F138F0823009F440C08D
:10068000833009F45BC008958381813061F42BB31A
:1006900081E090E0018002C0880F991F0A94E2F780
:1006A000822B8BBB0895811166C02BB381E090E053
:1006B000018002C0880F991F0A94E2F78095822377
:1006C0008BBB08958381813061F428B381E090E091
:1006D000018002C0880F991F0A94E2F7822B88BB21
:1006E0000895811148C028B381E090E0018002C0E4
:1006F000880F991F0A94E2F78095822388BB08959A
:100700008381813061F425B381E090E0018002C0F3
:10071000880F991F0A94E2F7822B85BB08958111F7
:100720002AC025B381E090E0018002C0880F991FA4
:100730000A94E2F78095822385BB089583818130F6
:1007400061F422B381E090E0018002C0880F991F1C
:100750000A94E2F7822B82BB089581110CC022B368
:1007600081E090E0018002C0880F991F0A94E2F7AF
:100770008095822382BB0895813041F028F0823039
:1007800039F0833039F008956ABB089567BB089546
:1007900064BB089561BB089583B78F7B83BF83B724
:1007A000886083BF83B78F7E83BF83B78F7D83BF0E
:1007B0008AEF8CBF83B7887F836083BF08950F93D0
:1007C0001F938B019C0140E050E0BA010AC008B6BB
:1007D00001FEFDCF88B7826088BF4F5F5F4F6F4FCC
:1007E0007F4F401751076207730788F31F910F91DE
:1007F000089587E689B98AB180618AB98AB188602B
:100800008AB986E880BD08955D9BFECF8CB90895B6
:10081000FC019BB1892F881F8827881F19F08CB194
:10082000808381E00895AC0130E08FEF9FEF16C028
:10083000FA01E30FF11D2081822720E00CC080FF28
:1008400007C09695879571E0872770EA972702C0C1
:10085000969587952F5F283090F33F5F361740F3CA
:100860000895FF920F931F93CF93DF93CDB7DEB719
:1008700029970FB6F894DEBF0FBECDBFFC012081D3
:10088000213009F064C08C0166E00E941304F80175
:10089000278130E0322F22274681242B82179307AD
:1008A00009F055C081818530F1F484818F3F31F4A6
:1008B0009581911103C00E94590208C0811106C0A0
:1008C000F8018581811102C00E947402F12C07C0D9
:1008D000F801EF0DF11D80810E940404F394F7E00C
:1008E000FF15B0F734C08350823088F582E00E9453
:1008F0009D029C01A4EFB1E00E940305DC01CB0145
:10090000072E7AE0B695A795979587957A95D1F7B2
:10091000702D21E02983F80121812A8324E02B8393
:100920009C838D8365E0CE0101960E9413048E8323
:100930009F8310E00AC0E1E0F0E0EC0FFD1FE10F43
:10094000F11D80810E9404041F5F1930A0F32996D5
:100950000FB6F894DEBF0FBECDBFDF91CF911F91D0
:100960000F91FF9008950E943D020895CF93DF9369
:100970001F92CDB7DEB71982CE0101960E940804FE
:100980008130D9F48091B500811106C099819130F0
:1009900019F01092B50011C0E82FF0E0E355FF4FB9
:1009A000998190838F5F8093B500883031F48DEA10
:1009B00090E00E9431041092B5000F90DF91CF912A
:1009C0000895A1E21A2EAA1BBB1BFD010DC0AA1F90
:1009D000BB1FEE1FFF1FA217B307E407F50720F0A8
:1009E000A21BB30BE40BF50B661F771F881F991F23
:1009F0001A9469F760957095809590959B01AC016C
:100A0000BD01CF010895A29FB001B39FC001A39F74
:100A1000700D811D1124911DB29F700D811D112437
:080A2000911D0895F894FFCF29
:100A2800234D6F646275732047617465776179003F
:100A380053797374656D2052656164792E2E2E008A
:100A480054656D703A2000204320202020004D6F0F
:100A5800746F723A2052554E4E494E47004D6F748E
:0C0A68006F723A2053544F505045440028
:00000001FF
