:100000000C942A000C943F000C943F000C943F0089
:100010000C943F000C943F000C943F000C943F0064
:100020000C943F000C943F000C943F000C943F0054
:100030000C943F000C943F000C943F000C943F0044
:100040000C943F000C943F000C943F000C943F0034
:100050000C943F0011241FBECFE5D8E0DEBFCDBF1A
:1000600010E0A0E6B0E0ECECF5E002C005900D92E7
:10007000A237B107D9F70E9441000C94E4020C9416
:1000800000000E94D5020E94A8020E9418010E944E
:10009000E0028134A1F460E082E00E94560160E059
:1000A00080E00E944E0180E690E00E943B0161E00A
:1000B00081E00E944E0181E40E94EA00E8CF60E006
:1000C00082E00E947001E3CF0F931F93CF93DF93E1
:1000D000CDB7DEB728970FB6F894DEBF0FBECDBF01
:1000E000082F84E0898385E08A8386E08B8387E01C
:1000F0008C831D8210E017C0E1E0F0E0EC0FFD1FE3
:10010000E10FF11D80818E83802F90E0012E02C0CF
:10011000959587950A94E2F781708887CE010596B8
:100120000E9411021F5F143038F328960FB6F8941E
:10013000DEBF0FBECDBFDF91CF911F910F9108950C
:10014000CF93DF9300D000D0CDB7DEB781E08983B5
:100150001A828C83CE0101960E94110262E070E047
:1001600080E090E00E94BB021C82CE0101960E94BA
:10017000110262E070E080E090E00E94BB020F900C
:100180000F900F900F90DF91CF9108951F93CF9311
:10019000DF9300D000D0CDB7DEB7182F81E0898380
:1001A0008A831C82CE0101960E941102812F8295C2
:1001B0008F700E9464000E94A000812F0E94640042
:1001C0000E94A0000F900F900F900F90DF91CF91A1
:1001D0001F9108951F93CF93DF9300D000D0CDB728
:1001E000DEB7182F81E089838A838C83CE01019644
:1001F0000E941102812F82958F700E9464000E94DC
:10020000A000812F0E9464000E94A0000F900F9018
:100210000F900F90DF91CF911F91089581E00E9480
:10022000C60062E070E080E090E00E94BB020895AA
:1002300063E081E00E94980260EF80E00E949802F3
:1002400068E270E080E090E00E94BB0282E00E94E1
:1002500064000E94A00082E00E9464000E94A0004E
:1002600088E00E9464000E94A0008CE00E94C6000A
:100270000E940E0108950F931F93CF938C01C0E04D
:1002800003C00E94EA00CF5FF801EC0FF11D8081EE
:100290008111F7CFCF911F910F91089590E4699F3D
:1002A000800D112480680E94C6000895CF93DF93CB
:1002B00000D000D0CDB7DEB789836A8381E08B831D
:1002C0008C83CE0101960E948A01CE0101960E9484
:1002D00011020F900F900F900F90DF91CF91089522
:1002E000CF93DF9300D000D0CDB7DEB789836A8388
:1002F00081E08B831C82CE0101960E948A01CE018F
:1003000001960E9411020F900F900F900F90DF91B5
:10031000CF910895FC01892B09F482C0808181303E
:1003200031F138F0823009F440C0833009F45BC009
:1003300008958281813061F42AB381E090E00180E8
:1003400002C0880F991F0A94E2F7822B8ABB089596
:10035000811166C02AB381E090E0018002C0880F5D
:10036000991F0A94E2F7809582238ABB08958281BF
:10037000813061F427B381E090E0018002C0880FF2
:10038000991F0A94E2F7822B87BB0895811148C018
:1003900027B381E090E0018002C0880F991F0A9482
:1003A000E2F78095822387BB08958281813061F4D2
:1003B00024B381E090E0018002C0880F991F0A9465
:1003C000E2F7822B84BB089581112AC024B381E017
:1003D00090E0018002C0880F991F0A94E2F780958F
:1003E000822384BB08958281813061F421B381E04E
:1003F00090E0018002C0880F991F0A94E2F7822BD7
:1004000081BB089581110CC021B381E090E001808F
:1004100002C0880F991F0A94E2F78095822381BB5E
:100420000895FC01892B09F482C08081813031F16B
:1004300038F0823009F440C0833009F45BC008957D
:100440008381813061F42BB381E090E0018002C0B0
:10045000880F991F0A94E2F7822B8BBB08958111B4
:1004600066C02BB381E090E0018002C0880F991F25
:100470000A94E2F7809582238BBB089583818130B3
:1004800061F428B381E090E0018002C0880F991FD9
:100490000A94E2F7822B88BB0895811148C028B3E3
:1004A00081E090E0018002C0880F991F0A94E2F772
:1004B0008095822388BB08958381813061F425B3C0
:1004C00081E090E0018002C0880F991F0A94E2F752
:1004D000822B85BB089581112AC025B381E090E06D
:1004E000018002C0880F991F0A94E2F78095822349
:1004F00085BB08958381813061F422B381E090E06F
:10050000018002C0880F991F0A94E2F7822B82BBF8
:10051000089581110CC022B381E090E0018002C0F7
:10052000880F991F0A94E2F78095822382BB089571
:10053000813041F028F0823039F0833039F008956D
:100540006ABB089567BB089564BB089561BB0895B5
:1005500083B78F7B83BF83B7886083BF83B78F7E6A
:1005600083BF83B78F7D83BF8AEF8CBF83B7887FBC
:10057000836083BF08950F931F938B019C0140E01C
:1005800050E0BA010AC008B601FEFDCF88B782600C
:1005900088BF4F5F5F4F6F4F7F4F40175107620714
:1005A000730788F31F910F91089587E689B98AB17F
:1005B00080618AB98AB188608AB986E880BD089569
:0C05C0005F9BFECF8CB10895F894FFCF34
:1005CC007265636569766520646174612E2E2E2ECA
:0205DC0000001D
:00000001FF
